:100000000C9446000C9465000C9465000C946500FB
:100010000C9465000C9422020C9465000C9465000D
:100020000C9465000C9465000C9465000C946500BC
:100030000C9465000C9465000C9465000C946500AC
:100040000C940B020C9465000C9465000C946500F4
:100050000C9465000C9465000C9465000C9465008C
:100060000C9465000C9465000C9465000C9465007C
:100070000C9465000C9465000C9465000C9465006C
:100080000C9465000C9465000C94650011241FBE4F
:10009000CFEFD0E1DEBFCDBF11E0A0E0B1E0E2E6FE
:1000A000FEE000E00BBF02C007900D92A431B10743
:1000B000D9F711E0A4E1B1E001C01D92A232B1076D
:1000C000E1F70E9473020C942F070C94000080E863
:1000D00085BF10926D0080936C0010BC8FE087BBD1
:1000E0008FEF88BB81BB82BB8EEF82B983B9129A36
:1000F000E1E6F0E080818E7F808380818D7F808348
:1001000080818B7F80838081877F8083E4E6F0E03D
:10011000808188608083089590E007C00F920F90DF
:100120000F920F900F920F909F5F9817B8F308955A
:100130000F931F93CF93DF938C01C0E0D0E00DC0ED
:100140008AEF0E948C008AEF0E948C008AEF0E9446
:100150008C008AEF0E948C002196C017D10780F393
:10016000DF91CF911F910F9108950F931F9305E693
:1001700010E0F80180818860808382E390E00E9433
:100180009800F8018081877F80831F910F910895E7
:100190001A9882E390E00E9498001A9A089580933A
:1001A000008082E30E948C0008958093018082E3A6
:1001B0000E948C000895CF93DF93EB010E94CF0043
:1001C00003C00E94D500219688818823D1F7DF9152
:1001D000CF91089582E090E00E94980088E30E9409
:1001E000CF0082E090E00E94980088E30E94CF0058
:1001F00082E090E00E94980088E30E94CF0082E0B5
:1002000090E00E9498008CE00E94CF0082E090E095
:100210000E94980086E00E94CF0082E090E00E9459
:10022000980082E00E94CF0082E090E00E94980057
:1002300081E00E94CF0082E090E00E94980081E07F
:100240000E94CF0082E090E00E94980008958BEF1A
:1002500081BB10929B0088E180939A0086E0809396
:100260009D001092980088E08093990008955F9B0C
:10027000FECF8CB15F9A0895982F80919B0085FFE7
:10028000FCCF90939C0080919B00806280939B00A8
:100290000895EF92FF920F931F93DF93CF9300D0B7
:1002A00000D0CDB7DEB780EE898380ED8A8380EB06
:1002B0008B8380E78C8313B881E00E948C0086B327
:1002C000807F90911401803F51F4992309F477C005
:1002D00082E090E00E9498001092140170C099236F
:1002E00009F06DC00E94B50081E0809314018E0179
:1002F0000F5F1F4FFF24F801E080E3B881E00E9408
:100300008C0086B3807F803FA1F182958F708E0D27
:100310008E3BE9F18F3BA0F48E3799F18F3740F493
:100320008B3789F18D3719F1873709F048C02DC017
:100330008B3B89F18D3B69F1873B09F040C02DC0B3
:100340008E3D69F18F3D38F48B3D69F18D3D49F16A
:10035000873DA9F52AC08B3E71F18C3E18F4873E8B
:1003600071F52BC08D3E29F18E3E49F520C081E309
:1003700027C0F3940F5F1F4FF4E0FF1609F0BBCFC7
:100380001EC080E31DC082E31BC083E319C084E369
:1003900017C085E315C086E313C087E311C088E367
:1003A0000FC089E30DC081E60BC082E609C083E679
:1003B00007C084E605C085E603C086E601C080E08C
:1003C0000F900F900F900F90CF91DF911F910F9191
:1003D000FF90EF900895C098C29A85BB82E090E0AC
:1003E0000E949800C2980895C09AC29A85BB82E084
:1003F00090E00E949800C298089517B887EE86B9D9
:1004000086B124B135B1C9010895909A80E00E9467
:100410008C00909808951F920F920FB60F9211249E
:100420008F939F938091150190911601019690935F
:100430001601809315019F918F910F900FBE0F9021
:100440001F9018951F920F920FB60F920BB60F9236
:1004500011242F933F934F935F936F937F938F93C9
:100460009F93AF93BF93EF93FF93809117018823DE
:1004700071F4109216011092150121E027BF92E04D
:1004800093BF8CE882BF9ABF2093170119C017BE93
:1004900010921701809115019091160100D000D0A3
:1004A00020E031E0EDB7FEB732832183948383836C
:1004B0000E94670483E08ABF0F900F900F900F9007
:1004C000FF91EF91BF91AF919F918F917F916F912C
:1004D0005F914F913F912F910F900BBE0F900FBEE8
:1004E0000F901F9018959F92AF92BF92CF92DF927C
:1004F000EF92FF920F931F930E94270185E091E0F6
:1005000090931F0180931E0110926D0015BE82E032
:1005100090E00E9498001FEF14BBB89AB99ABA9A5B
:10052000C098C198C29882E090E00E949800C29A58
:100530008CE385BB82E090E00E949800C298C29A4A
:100540008CE085BB82E090E00E949800C29882E037
:1005500090E00E949800C29A86E085BB82E090E01D
:100560000E949800C298C29A82E085BB82E090E027
:100570000E949800C298C29A81E085BB82E090E018
:100580000E949800C29880E890E00E94EB018EE4FF
:1005900090E00E94F40181E890E00E94EB0181E488
:1005A00090E00E94F40182E890E00E94EB018DE46B
:1005B00090E00E94F40183E890E00E94EB0185E462
:1005C00090E00E94F40184E890E00E94EB018AE34D
:1005D00090E00E94F40186E890E00E94EB018BE439
:1005E00090E00E94F40187E890E00E94EB0189E42A
:1005F00090E00E94F40188E890E00E94EB018DE415
:1006000090E00E94F4018AE890E00E94EB0183E50B
:1006100090E00E94F4018CE890E00E94EB0188E4F5
:1006200090E00E94F40180EC90E00E94EB0184E4F1
:1006300090E00E94F40181EC90E00E94EB0189E6D9
:1006400090E00E94F40182EC90E00E94EB0183E7CD
:1006500090E00E94F40183EC90E00E94EB0184E7BB
:1006600090E00E94F40184EC90E00E94EB0181E6AE
:1006700090E00E94F40185EC90E00E94EB018EE690
:1006800090E00E94F40186EC90E00E94EB0183E68A
:1006900090E00E94F40187EC90E00E94EB0185E677
:1006A00090E00E94F40188EC90E00E94EB018AE364
:1006B00090E00E94F40180E281BB12B885E090E0F6
:1006C0000E94980080E189BF83E08ABF80E888B9F2
:1006D0008FB780688FBF10936100809161008E7F1B
:1006E0008093610087EE982E0E9405028AE090E0D8
:1006F0000E94980017B896B886B104B115B18091E0
:10070000150190911601059720F580916200846093
:100710008093620084E690E00E94980080916200DD
:100720008B7F8093620082E390E00E94980080912A
:10073000620088608093620084E690E00E949800E6
:1007400080916200877F8093620082E390E00E9444
:100750009800045F114014F4DC9A01C0DC98009109
:10076000150110911601E0901501F0901601C0904E
:100770001501D0901601A0901501B09016018AECD9
:1007800090E00E94EB01C80168EE73E00E94330420
:10079000CB0168E171E04AE050E00E94460480919C
:1007A000180190E00E94F4018BEC90E00E94EB01B4
:1007B000C70164E670E00E941F04CB016AE070E0AC
:1007C0000E94330469E171E04AE050E00E9446046F
:1007D0008091190190E00E94F4018CEC90E00E945D
:1007E000EB01C6016AE070E00E941F04CB016AE0E1
:1007F00070E00E9433046AE171E04AE050E00E9438
:10080000460480911A0190E00E94F4018DEC90E082
:100810000E94EB01C5016AE070E00E9433046BE1C5
:1008200071E04AE050E00E94460480911B0190E094
:100830000E94F40184E690E00E94980055CFAA1B24
:10084000BB1B51E107C0AA1FBB1FA617B70710F0BB
:10085000A61BB70B881F991F5A95A9F780959095ED
:10086000BC01CD01089597FB092E07260AD077FD1C
:1008700004D0E5DF06D000201AF4709561957F4F13
:100880000895F6F7909581959F4F0895FB019F017C
:10089000E8944230C4F04532B4F44A3029F497FB6E
:1008A0001EF4909581959F4F642F77270E941F0417
:1008B000805D8A330CF0895D8193CB010097A1F7AD
:1008C00016F45DE251931082C9010C949506DF93F2
:1008D000CF93CDB7DEB7FE013596619171918091CE
:1008E0001E0190911F01AF010E947904CF91DF9109
:1008F00008952F923F924F925F926F927F928F92C4
:100900009F92AF92BF92CF92DF92EF92FF920F939E
:100910001F93DF93CF93CDB7DEB72B970FB6F89425
:10092000DEBF0FBECDBF3C012B015A01FC01178277
:100930001682838181FD03C06FEF7FEFC6C19AE00D
:10094000892E1E010894211C311CF3012381F20120
:1009500023FD859123FF81912F01882309F4B2C1E2
:10096000853239F423FD859123FF81912F01853252
:1009700029F490E0B3010E94A506E7CF982FFF2449
:10098000EE249924FFE1FF15D0F09B3269F09C32F0
:1009900028F4903259F0933291F40EC09D3249F010
:1009A000903369F441E024C052E0F52A84E0F82A4B
:1009B00028C098E0F92A25C0E0E1FE2A22C0F7FC11
:1009C00029C0892F80538A3070F4F6FE05C0989CA8
:1009D000902C1124980E15C0E89CE02C1124E80EF0
:1009E000F0E2FF2A0EC09E3229F4F6FC6BC140E40F
:1009F000F42A07C09C3619F450E8F52A02C098364C
:100A000049F4F20123FD959123FF91912F01992340
:100A100009F0B8CF892F8554833018F08052833085
:100A200038F444E050E0A40EB51E5FE359830FC0D4
:100A3000933631F0933779F0933509F056C020C0E2
:100A4000F5018081898342E050E0A40EB51E61016A
:100A500001E010E012C0F501C080D180F6FC03C0B7
:100A60006FEF7FEF02C0692D70E042E050E0A40E0E
:100A7000B51EC6010E948A068C015FE7F52214C0EC
:100A8000F501C080D180F6FC03C06FEF7FEF02C09C
:100A9000692D70E042E050E0A40EB51EC6010E9430
:100AA0007F068C0150E8F52AF3FE07C01AC080E2E9
:100AB00090E0B3010E94A506EA948E2D90E00817FD
:100AC0001907A8F30EC0F601F7FC8591F7FE819196
:100AD0006F0190E0B3010E94A506E110EA94015075
:100AE00010400115110579F7EAC0943611F09936D6
:100AF00069F5F7FE08C0F5012081318142815381FB
:100B000084E090E00AC0F501808191819C01442736
:100B100037FD4095542F82E090E0A80EB91E9FE665
:100B2000F92257FF09C050954095309521953F4FC8
:100B30004F4F5F4FE0E8FE2ACA01B901A1012AE048
:100B400030E00E94D106D82ED21840C0953729F443
:100B50001F2D1F7E2AE030E01DC01F2D197F9F36FC
:100B600061F0903720F4983509F0ACC00FC0903791
:100B700039F0983709F0A6C004C028E030E00AC078
:100B8000106114FD146020E130E004C014FD166013
:100B900020E132E017FF08C0F50160817181828198
:100BA000938144E050E008C0F50180819181BC014F
:100BB00080E090E042E050E0A40EB51EA1010E944A
:100BC000D106D82ED2188FE7F82EF122F6FE0BC0F0
:100BD0005EEFF522D91438F4F4FE07C0F2FC05C02C
:100BE0008FEEF82202C01D2D01C0192DF4FE0DC09C
:100BF000FE01ED0DF11D8081803319F499EEF9228B
:100C000008C01F5FF2FE05C003C08F2D867809F073
:100C10001F5F0F2DF3FC14C0F0FE0FC01E1510F067
:100C20009D2C0BC09D2C9E0C911A1E2D06C080E29F
:100C300090E0B3010E94A5061F5F1E15C0F304C01B
:100C40001E1510F4E11A01C0EE2404FF0FC080E36A
:100C500090E0B3010E94A50602FF1DC001FD03C084
:100C600088E790E00EC088E590E00BC0802F867882
:100C700091F001FF02C08BE201C080E2F7FC8DE23F
:100C800090E0B3010E94A50606C080E390E0B301A6
:100C90000E94A5069A94D914C0F3DA94F101ED0DDF
:100CA000F11D808190E0B3010E94A506DD20A9F727
:100CB00006C080E290E0B3010E94A506EA94EE200F
:100CC000C1F743CEF30166817781CB012B960FB636
:100CD000F894DEBF0FBECDBFCF91DF911F910F9172
:100CE000FF90EF90DF90CF90BF90AF909F908F904C
:100CF0007F906F905F904F903F902F900895FC01F0
:100D00000590615070400110D8F7809590958E0F36
:100D10009F1F0895FC016150704001900110D8F7A9
:100D2000809590958E0F9F1F0895DC01FC01672F21
:100D300071917723E1F7329704C07C916D937083B2
:100D40006291AE17BF07C8F308950F931F93CF9317
:100D5000DF938C01EB018B8181FF1BC082FF0DC0F3
:100D60002E813F818C819D812817390764F4E881A9
:100D7000F9810193F983E88306C0E885F985802F1E
:100D80000995892B31F48E819F8101969F838E83F3
:100D900002C00FEF1FEFC801DF91CF911F910F919C
:100DA0000895FA01AA27283051F1203181F1E89401
:100DB0006F936E7F6E5F7F4F8F4F9F4FAF4FB1E04E
:100DC0003ED0B4E03CD0670F781F891F9A1FA11D49
:100DD000680F791F8A1F911DA11D6A0F711D811D4A
:100DE000911DA11D20D009F468943F912AE0269F0F
:100DF00011243019305D3193DEF6CF010895462F6E
:100E00004770405D4193B3E00FD0C9F7F6CF462F4E
:100E10004F70405D4A3318F0495D31FD40524193B7
:100E200002D0A9F7EACFB4E0A69597958795779574
:100E30006795BA95C9F700976105710508959B01FB
:100E4000AC010A2E06945795479537952795BA9584
:100E5000C9F7620F731F841F951FA01D0895F89492
:020E6000FFCFC2
:100E620025640A0D0000000002000000003C0100A1
:040E7200000000007C
:00000001FF
